:107000006BC00000AAC000008EC000008CC0000051
:107010008AC0000088C0000086C0000084C0000054
:1070200082C0000080C000007EC000007CC0000064
:107030007AC0000078C0000076C0000074C0000074
:1070400072C0000070C000006EC000006CC0000084
:107050006AC0000068C0000066C0000064C0000094
:1070600062C0000060C00000EC2DFD2DB7B6B0FC82
:10707000FDCF27BFE895B7B6B0FCFDCF21E1B7B68D
:10708000B6FCF4CF08950902120001010080320914
:10709000040000000000000012011001FF000008C1
:1070A000C016DC050201010200010E035500530069
:1070B00042006100730070001C03770077007700C6
:1070C0002E00660069007300630068006C002E00EB
:1070D000640065000403090411241FBECFEFD8E04B
:1070E000DEBFCDBF24B7D8E0CEEF39913833399128
:1070F00009F03FEF30933C0120933B0111E0A0E009
:10710000B1E0E6E8F8E702C005900D92A630B107BD
:10711000D9F721E0A6E0B1E001C01D92AB33B20780
:10712000E1F77DD1AEC36CCFA82FB92F80E090E0FE
:1071300041E050EA609530E009C02D918227979593
:10714000879510F084279527305EC8F36F5FA8F30A
:107150000895EADF8D939D930895CF93CFB7CF9392
:10716000DF93C3954B9BE9F74B9B0BC04B9B09C02F
:107170004B9B07C04B9B05C04B9B03C04B9B01C067
:1071800089C06F93C0911901DD27C65EDE4F2F9332
:1071900065E54B9B03C02F916F91E6CF0F931F9333
:1071A0004F9320E040E15F9309B10C7003FB27F996
:1071B0003F9350E03BE039C01C7040642F77012FB3
:1071C0005F5F1EC0406819B11C702F7752501FC0FE
:1071D000406409B12F770C70D1F15F5F00C023C00C
:1071E000406219B12F771C7091F15F5F00C025C01C
:1071F0000C701027515012F45D5F0000115027955C
:107200002C3F19B1C8F61C700127015027952C3F5F
:10721000C8F64227499309B10C7010274F731150DB
:1072200027952C3FA8F64695469519B11C7079F024
:107230000127015027952C3F98F66B5A60F3315087
:1072400009B1B0F600C011E01CBB002717C03B50CD
:107250003195C31BD04011E01CBB0881033CF9F001
:107260000B34E9F0209118011981110F1213EDCFA1
:10727000093651F10D3211F0013E39F70093140136
:107280003F915F914F911F910F912F916F91CCB3CF
:10729000C0FD67CFDF91CF91CFBFCF9118952091DF
:1072A0001401222369F310911501112339F53430AB
:1072B0003AF13093150120931301109119013BE02D
:1072C000311B309319011CC0009115010130B4F439
:1072D0000AE53091010134FD14C000930101C8E0BA
:1072E000D1E013C0052710E000C000000BB91AC0A0
:1072F000052710E0221F1DC010E021C04AE502C092
:1073000032ED432FC4E1D0E032E01AB11C605B9A49
:107310000BB11AB95CE020E865E320FF05270BB943
:10732000279517951C3FF0F66695B8F7B1F720FF43
:1073300005270BB9279517951C3FD0F6279517956C
:1073400017FF052700001C3F0BB9B0F629913A95AD
:1073500019F7037F10911701110FC651D0400BB9D7
:1073600011F01093180111E01CBB08601AB1137FD3
:10737000402F437F54E05A95F1F70BB91AB94BB936
:107380007FCFFC01438134818381948198278927B1
:1073900098272281203339F43370E32FF0E0EE5F39
:1073A000FE4F80810895283579F4442331F0483028
:1073B000C1F489E0E3E0F0E003C089E0E1E0F0E05F
:1073C0008093570084910895203569F4411104C0D9
:1073D00089E0E0E0F0E0F4CF89E0E2E0F0E048307E
:1073E00079F380E00895203229F4880F991FFC0179
:1073F00084910895283229F4880F991FFC01319651
:10740000F7CF203A09F427C2203C19F465812BD22A
:10741000E8CF2F3F31F781EF80933901E2CF1AB8DF
:1074200080E18BB981E085BF82E085BFE0E0F1E7D4
:10743000A89531978040E1F780913B01877F8111CA
:1074400004C080913C01882371F04C9B0CC0F894DF
:10745000539A1BB81DBA1092690081E085BF15BE12
:10746000E0E0F0E009958EEF8093390114BE0FB68D
:10747000F894A895809160008861809360001092D4
:1074800060000FBE80916900826080936900E89A75
:10749000539A8CE0E0E0F5E3A89531978040E1F75E
:1074A0005398789410911501135017FD59C080918D
:1074B0001901CCE0D0E0C81BD109C65EDE4F809137
:1074C00013018D3209F0D7C0183009F047C083ECA2
:1074D000809308018AE58093010110923A01388176
:1074E000832F80769981882309F467C040E351E0B7
:1074F0005093070140930601933069F4CE0141DFB8
:107500008093330184E09F81911126C09E8198175A
:1075100018F5892F21C0953009F4ABC09A3009F4D1
:10752000A8C08CEF890F863008F03CC04A815B818F
:1075300050933801409337019930D9F18E8180936F
:1075400036012D812270209335019093340137FF4D
:107550008FEF90E890933A0180930001109215010B
:107560008091010184FF1BC1809100018F3F09F4CC
:1075700016C1182F893008F018E0982F911B9093AE
:1075800000019091080128E8922790930801811149
:10759000E6C060E089E091E0DCDD84E09FEF90935D
:1075A0000001FBC080913901923029F48E7F8093D5
:1075B000390180E0A8CF8160FACF2A8110921101B1
:1075C00091110AC01092120121E131E082E0309362
:1075D00007012093060197CF953029F420931701D6
:1075E00021E131E0F4CF963099F59B81913059F447
:1075F00088E990E7909307018093060182E190E487
:1076000090933A0180CF923019F486E890E7F2CF58
:107610009330A9F7211108C084ED90E790930701FA
:107620008093060184E0EBCF213041F488EB90E7B2
:1076300090930701809306018CE1E1CF2230F9F6A7
:107640008AEA90E790930701809306018EE0D7CFF6
:10765000983059F0993019F420931601C1CF81E088
:107660009A3009F4BDCF80E0BBCF26E131E081E064
:10767000AECF81E048CF80913A0187FF6FCF009174
:107680003601011708F4102F011B00933601F12C6D
:10769000F11628F0011162CF109200015FCF8091A6
:1076A00037019091380120913401273058F06991C9
:1076B0009C012F5F3F4F3093380120933701D3D087
:1076C000F394E6CF8115904738F7F394F394F89448
:1076D000E0913701F09138012881398181E0090179
:1076E00080935700E8951124789480913701909108
:1076F0003801029690933801809337018F7799274C
:10770000892B51F0011102C0F11610F42296C0CF5E
:10771000809135018823D1F3F894E0913701F091FD
:107720003801329783E080935700E895789407B644
:1077300000FCFDCFF894E0913701F09138013297C9
:1077400085E080935700E895789407B600FCFDCF5C
:10775000F89481E180935700E8957894D7CF3091E1
:107760003A0137FF4FC080913601811708F4182F76
:10777000811B80933601D090340100E089E0E82E2F
:1077800081E0F82E101328C0612F89E091E0E1DC40
:1077900084E0810F183009F001CF8093010184E16A
:1077A00099B19C70911107C081508111F9CF10924D
:1077B00017011092180180913901803108F440C0FE
:1077C0004C9B05C080913901805180933901809193
:1077D0003901811167CE3BCEC0913701D09138017C
:1077E00026E02D1560F4CE0136D0F70181937F019C
:1077F0002196D0933801C09337010F5FC3CFFE01AC
:107800008491F3CF8091060190910701212F280FD9
:10781000FC0189E091E036FF0CC03491DC013C931F
:10782000019631962E13F9CFF0930701E0930601EC
:10783000ABCFDC0131913C9301962E13FACFF4CFFC
:107840004C99C5CF80913901823008F4C0CF809126
:1078500039018250BACFF999FECF92BD81BDF89A15
:10786000992780B50895262FF999FECF1FBA92BDAA
:1078700081BD20BD0FB6F894FA9AF99A0FBE019611
:067880000895F894FFCF0B
:06788600FF5A1E951400DC
:040000030000700089
:00000001FF
