:1070000061C00000A0C0000084C0000082C0000079
:1070100080C000007EC000007CC000007AC000007C
:1070200078C0000076C0000074C0000072C000008C
:1070300070C000006EC000006CC000006AC000009C
:1070400068C0000066C0000064C0000062C00000AC
:1070500060C00000EC2DFD2DB7B6B0FCFDCF27BF02
:10706000E895B7B6B0FCFDCF21E1B7B6B6FCF4CFDA
:107070000895090212000101008032090400000095
:107080000000000012011001FF000008C016DC051E
:107090000201010200010E0355005300420061008D
:1070A000730070001C037700770077002E006600E5
:1070B00069007300630068006C002E0064006500C6
:1070C0000403090411241FBECFE5D8E0DEBFCDBF05
:1070D00024B7D8E0CEE539913833399109F03FEF44
:1070E00030939C0020939B0010E0A0E6B0E0EEE51A
:1070F000F8E702C005900D92A636B107D9F720E057
:10710000A6E6B0E001C01D92AB39B207E1F778D135
:10711000A4C376CFA82FB92F80E090E041E050EAD9
:10712000609530E009C02D9182279795879510F0E2
:1071300084279527305EC8F36F5FA8F30895EADFD0
:107140008D939D930895CF93CFB7CF93DF93C3953E
:10715000839BE9F7839B0BC0839B09C0839B07C07C
:10716000839B05C0839B03C0839B01C089C06F9331
:10717000C0917900DD27C658DF4F2F9365E5839BCB
:1071800003C02F916F91E6CF0F931F934F9320E091
:1071900040E15F9300B30C7003FB27F93F9350E08D
:1071A0003BE039C01C7040642F77012F5F5F1EC029
:1071B000406810B31C702F7752501FC0406400B35A
:1071C0002F770C70D1F15F5F00C023C0406210B315
:1071D0002F771C7091F15F5F00C025C00C701027E5
:1071E000515012F45D5F0000115027952C3F10B3F1
:1071F000C8F61C700127015027952C3FC8F642277E
:10720000499300B30C7010274F73115027952C3FF2
:10721000A8F64695469510B31C7079F001270150E9
:1072200027952C3F98F66B5A60F3315000B3B0F6B7
:1072300000C010E41ABF002717C03B503195C31B94
:10724000D04010E41ABF0881033CF9F00B34E9F098
:10725000209178001981110F1213EDCF093651F1E9
:107260000D3211F0013E39F7009374003F915F91A8
:107270004F911F910F912F916F91CAB7C6FD67CFA4
:10728000DF91CF91CFBFCF91189520917400222329
:1072900069F310917500112339F534303AF13093C8
:1072A000750020937300109179003BE0311B3093FF
:1072B00079001CC0009175000130B4F40AE53091EA
:1072C000610034FD14C000936100C8E6D0E013C033
:1072D000052710E000C0000002BB1AC0052710E01F
:1072E000221F1DC010E021C04AE502C032ED432F2D
:1072F000C4E1D0E032E011B31C60939A02B311BB39
:107300005CE020E865E320FF052702BB2795179581
:107310001C3FF0F66695B8F7B1F720FF052702BBD2
:10732000279517951C3FD0F62795179517FF05272A
:1073300000001C3F02BBB0F629913A9519F7037F74
:1073400010917700110FC651D04002BB11F010937D
:10735000780010E41ABF086011B3137F402F437FF9
:1073600054E05A95F1F702BB11BB42BB7FCFFC0141
:1073700043813481838194819827892798272281AA
:10738000203339F43370E32FF0E0EE59FF4F808162
:107390000895283579F4442331F0483079F489E0B0
:1073A000E3E0F0E003C089E0E1E0F0E08093570023
:1073B00084910895203541F4442311F080E008952C
:1073C00089E0E0E0F0E0F2CF203229F4880F991F45
:1073D000FC0184910895283229F4880F991FFC013B
:1073E0003196F7CF203A09F423C2203C19F4658185
:1073F00027D2E4CF2F3F11F781EF80939900DECFA2
:1074000011BA80E182BB81E08BBF82E08BBFE0E0FC
:10741000F1E7A89531978040E1F780919B00877F45
:10742000811104C080919C00882369F0849B0BC06B
:10743000F8948B9A12BA1BBE15BE81E08BBF1BBE9F
:10744000E0E0F0E009958EEF8093990014BE0FB64E
:10745000F894A89581B5886181BD11BC0FBE85B730
:10746000826085BF8BB780648BBF8B9A8CE0E0E035
:10747000F5E3A89531978040E1F78B9878941091C7
:107480007500135017FD59C080917900CCE0D0E011
:10749000C81BD109C658DF4F809173008D3209F0A7
:1074A000D7C0183009F047C083EC809368008AE5A4
:1074B0008093610010929A003881832F80769981A1
:1074C000882309F467C040E950E050936700409377
:1074D0006600933069F4CE014ADF8093930084E024
:1074E0009F81911126C09E81981718F5892F21C080
:1074F000953009F4ABC09A3009F4A8C08CEF890F1D
:10750000863008F03CC04A815B81509398004093DC
:1075100097009930D9F18E81809396002D81227049
:10752000209395009093940037FF8FEF90E890930D
:107530009A0080936000109275008091610084FF32
:107540001BC1809160008F3F09F416C1182F89304C
:1075500008F018E0982F911B9093600090916800BC
:1075600028E89227909368008111E6C060E089E6E0
:1075700090E0E5DD84E09FEF90936000FBC0809198
:107580009900923029F48E7F8093990080E0A8CFF3
:107590008160FACF2A811092710091110AC0109275
:1075A000720021E730E082E03093670020936600AC
:1075B00097CF953029F42093770021E730E0F4CF7E
:1075C000963099F59B81913059F484E890E7909337
:1075D00067008093660082E190E490939A0080CFE8
:1075E000923019F482E790E7F2CF9330A9F7211196
:1075F00008C080EC90E7909367008093660084E079
:10760000EBCF213041F484EA90E7909367008093B8
:1076100066008CE1E1CF2230F9F686E990E790939D
:107620006700809366008EE0D7CF983059F099308C
:1076300019F420937600C1CF81E09A3009F4BDCFD0
:1076400080E0BBCF26E730E081E0AECF81E048CFDD
:1076500080919A0087FF6FCF00919600011708F480
:10766000102F011B00939600F12CF11628F0011148
:1076700062CF109260005FCF809197009091980048
:1076800020919400273058F069919C012F5F3F4F63
:107690003093980020939700D3D0F394E6CF8115D0
:1076A000904738F7F394F394F894E0919700F091B1
:1076B00098002881398181E0090180935700E8957D
:1076C000112478948091970090919800029690935D
:1076D0009800809397008F779927892B51F001119B
:1076E00002C0F11610F42296C0CF80919500882335
:1076F000D1F3F894E0919700F0919800329783E0ED
:1077000080935700E895789407B600FCFDCFF89475
:10771000E0919700F0919800329785E080935700B0
:10772000E895789407B600FCFDCFF89481E180934A
:107730005700E8957894D7CF30919A0037FF4FC023
:1077400080919600811708F4182F811B8093960072
:10775000D090940000E089E6E82E80E0F82E101327
:1077600028C0612F89E690E0EADC84E0810F1830C0
:1077700009F001CF8093610084E190B39C70911176
:1077800007C081508111F9CF1092770010927800D4
:1077900080919900803108F440C0849B05C080919D
:1077A000990080518093990080919900811167CE52
:1077B0003FCEC0919700D091980026E02D1560F43F
:1077C000CE0136D0F70181937F012196D0939800A6
:1077D000C09397000F5FC3CFFE018491F3CF8091D8
:1077E000660090916700212F280FFC0189E690E048
:1077F00036FF0CC03491DC013C93019631962E1378
:10780000F9CFF0936700E0936600ABCFDC013191D4
:107810003C9301962E13FACFF4CF8499C5CF809173
:107820009900823008F4C0CF809199008250BACF7D
:10783000E199FECF9FBB8EBBE09A99278DB3089547
:10784000262FE199FECF9FBB8EBB2DBB0FB6F894C0
:0E785000E29AE19A0FBE01960895F894FFCFD8
:06785E00FF5A1E95020016
:040000030000700089
:00000001FF
